{
  "contractName": "Contracts_Factory",
  "abi": [
    {
      "constant": true,
      "inputs": [],
      "name": "getEthAccount",
      "outputs": [
        {
          "name": "",
          "type": "string[]"
        }
      ],
      "payable": false,
      "stateMutability": "view",
      "type": "function",
      "signature": "0x16540941"
    },
    {
      "constant": true,
      "inputs": [],
      "name": "getIndex",
      "outputs": [
        {
          "name": "",
          "type": "uint256"
        }
      ],
      "payable": false,
      "stateMutability": "view",
      "type": "function",
      "signature": "0x81045ead"
    },
    {
      "constant": false,
      "inputs": [],
      "name": "incrementIndex",
      "outputs": [],
      "payable": false,
      "stateMutability": "nonpayable",
      "type": "function",
      "signature": "0xc17cf9a8"
    },
    {
      "constant": false,
      "inputs": [],
      "name": "createManufacturer",
      "outputs": [],
      "payable": false,
      "stateMutability": "nonpayable",
      "type": "function",
      "signature": "0x82a9bcd2"
    },
    {
      "constant": true,
      "inputs": [],
      "name": "allManufacturers",
      "outputs": [
        {
          "name": "",
          "type": "address[]"
        }
      ],
      "payable": false,
      "stateMutability": "view",
      "type": "function",
      "signature": "0x07857292"
    },
    {
      "constant": true,
      "inputs": [],
      "name": "get_manufacturer_SIZE",
      "outputs": [
        {
          "name": "",
          "type": "int256"
        }
      ],
      "payable": false,
      "stateMutability": "view",
      "type": "function",
      "signature": "0xc9c865f4"
    },
    {
      "constant": false,
      "inputs": [],
      "name": "createDistributor",
      "outputs": [],
      "payable": false,
      "stateMutability": "nonpayable",
      "type": "function",
      "signature": "0x5b858766"
    },
    {
      "constant": true,
      "inputs": [],
      "name": "allDistributors",
      "outputs": [
        {
          "name": "",
          "type": "address[]"
        }
      ],
      "payable": false,
      "stateMutability": "view",
      "type": "function",
      "signature": "0xee31eacd"
    },
    {
      "constant": true,
      "inputs": [],
      "name": "get_distributor_SIZE",
      "outputs": [
        {
          "name": "",
          "type": "int256"
        }
      ],
      "payable": false,
      "stateMutability": "view",
      "type": "function",
      "signature": "0x62b459f4"
    },
    {
      "constant": false,
      "inputs": [],
      "name": "createRetailer",
      "outputs": [],
      "payable": false,
      "stateMutability": "nonpayable",
      "type": "function",
      "signature": "0xb522ee4f"
    },
    {
      "constant": true,
      "inputs": [],
      "name": "allRetailers",
      "outputs": [
        {
          "name": "",
          "type": "address[]"
        }
      ],
      "payable": false,
      "stateMutability": "view",
      "type": "function",
      "signature": "0x0f692a1a"
    },
    {
      "constant": true,
      "inputs": [],
      "name": "get_retailer_SIZE",
      "outputs": [
        {
          "name": "",
          "type": "int256"
        }
      ],
      "payable": false,
      "stateMutability": "view",
      "type": "function",
      "signature": "0xed216de4"
    },
    {
      "constant": false,
      "inputs": [],
      "name": "createCustomer",
      "outputs": [],
      "payable": false,
      "stateMutability": "nonpayable",
      "type": "function",
      "signature": "0x62254dc3"
    },
    {
      "constant": true,
      "inputs": [],
      "name": "allCustomers",
      "outputs": [
        {
          "name": "",
          "type": "address[]"
        }
      ],
      "payable": false,
      "stateMutability": "view",
      "type": "function",
      "signature": "0x1e3e6952"
    },
    {
      "constant": true,
      "inputs": [],
      "name": "get_customer_SIZE",
      "outputs": [
        {
          "name": "",
          "type": "int256"
        }
      ],
      "payable": false,
      "stateMutability": "view",
      "type": "function",
      "signature": "0xafd12fbc"
    },
    {
      "constant": false,
      "inputs": [
        {
          "name": "_owner",
          "type": "string"
        }
      ],
      "name": "createProduct",
      "outputs": [],
      "payable": false,
      "stateMutability": "nonpayable",
      "type": "function",
      "signature": "0x02ec06be"
    },
    {
      "constant": true,
      "inputs": [],
      "name": "allProducts",
      "outputs": [
        {
          "name": "",
          "type": "address[]"
        }
      ],
      "payable": false,
      "stateMutability": "view",
      "type": "function",
      "signature": "0x91295241"
    },
    {
      "constant": true,
      "inputs": [],
      "name": "get_product_SIZE",
      "outputs": [
        {
          "name": "",
          "type": "int256"
        }
      ],
      "payable": false,
      "stateMutability": "view",
      "type": "function",
      "signature": "0xe31e886e"
    },
    {
      "constant": false,
      "inputs": [
        {
          "name": "_owner",
          "type": "string"
        }
      ],
      "name": "createTransport",
      "outputs": [],
      "payable": false,
      "stateMutability": "nonpayable",
      "type": "function",
      "signature": "0x55485fa3"
    },
    {
      "constant": true,
      "inputs": [],
      "name": "allTransports",
      "outputs": [
        {
          "name": "",
          "type": "address[]"
        }
      ],
      "payable": false,
      "stateMutability": "view",
      "type": "function",
      "signature": "0xe25232bf"
    },
    {
      "constant": true,
      "inputs": [],
      "name": "get_transport_SIZE",
      "outputs": [
        {
          "name": "",
          "type": "int256"
        }
      ],
      "payable": false,
      "stateMutability": "view",
      "type": "function",
      "signature": "0x21c60944"
    }
  ],
  "bytecode": "0x6080604052600a600055600060015561014060405190810160405280606060405190810160405280602a81526020017f307835333565633236373432666544394665394264393844383531463630423181526020017f37653632316361363865000000000000000000000000000000000000000000008152508152602001606060405190810160405280602a81526020017f307837313231396637363333393438443732423645443563353041626465663481526020017f37373134333130614462000000000000000000000000000000000000000000008152508152602001606060405190810160405280602a81526020017f307830303841453163613637463639433734334438466634653035314436623581526020017f65376143374545393042000000000000000000000000000000000000000000008152508152602001606060405190810160405280602a81526020017f307863363834383346313461396536303866366334663238623133353436323181526020017f64363733453533326233000000000000000000000000000000000000000000008152508152602001606060405190810160405280602a81526020017f307864323337353242344362353637443931346561393943663745393133386581526020017f31613636353266344141000000000000000000000000000000000000000000008152508152602001606060405190810160405280602a81526020017f307846414338396430383034373663363738353365324432306344663437424481526020017f39433336313737363136000000000000000000000000000000000000000000008152508152602001606060405190810160405280602a81526020017f307843303835343436313332343334613135383437393330313546334263433581526020017f36393336306636444466000000000000000000000000000000000000000000008152508152602001606060405190810160405280602a81526020017f307863304230334232364537346137423630343863453436373730373345324181526020017f61334536344644333735000000000000000000000000000000000000000000008152508152602001606060405190810160405280602a81526020017f307831343942413335316530466234333638453333303838343134333342623381526020017f31436641303731373538000000000000000000000000000000000000000000008152508152602001606060405190810160405280602a81526020017f307832636664344643344165384241363961384533434133653531343234364681526020017f3242326636396439373700000000000000000000000000000000000000000000815250815250600290600a620003ff92919062000432565b5060006003556000600555600060075560006009556000600b556000600d553480156200042b57600080fd5b50620005c5565b82805482825590600052602060002090810192821562000486579160200282015b82811115620004855782518290805190602001906200047492919062000499565b509160200191906001019062000453565b5b50905062000495919062000520565b5090565b828054600181600116156101000203166002900490600052602060002090601f016020900481019282601f10620004dc57805160ff19168380011785556200050d565b828001600101855582156200050d579182015b828111156200050c578251825591602001919060010190620004ef565b5b5090506200051c919062000551565b5090565b6200054e91905b808211156200054a576000818162000540919062000579565b5060010162000527565b5090565b90565b6200057691905b808211156200057257600081600090555060010162000558565b5090565b90565b50805460018160011615610100020316600290046000825580601f10620005a15750620005c2565b601f016020900490600052602060002090810190620005c1919062000551565b5b50565b613dc580620005d56000396000f3fe60806040526004361062000133576000357c0100000000000000000000000000000000000000000000000000000000900463ffffffff16806302ec06be14620001385780630785729214620001665780630f692a1a14620001965780631654094114620001c65780631e3e695214620001f657806321c60944146200022657806355485fa314620002565780635b858766146200028457806362254dc3146200029e57806362b459f414620002b857806381045ead14620002e857806382a9bcd21462000318578063912952411462000332578063afd12fbc1462000362578063b522ee4f1462000392578063c17cf9a814620003ac578063c9c865f414620003c6578063e25232bf14620003f6578063e31e886e1462000426578063ed216de41462000456578063ee31eacd1462000486575b600080fd5b3480156200014557600080fd5b506200016460048036036200015e919081019062000e27565b620004b6565b005b3480156200017357600080fd5b506200017e6200056b565b6040516200018d91906200128a565b60405180910390f35b348015620001a357600080fd5b50620001ae620005fb565b604051620001bd9190620012d2565b60405180910390f35b348015620001d357600080fd5b50620001de6200068b565b604051620001ed91906200131a565b60405180910390f35b3480156200020357600080fd5b506200020e6200077a565b6040516200021d919062001242565b60405180910390f35b3480156200023357600080fd5b506200023e6200080a565b6040516200024d91906200133e565b60405180910390f35b3480156200026357600080fd5b506200028260048036036200027c919081019062000e27565b62000814565b005b3480156200029157600080fd5b506200029c620008c9565b005b348015620002ab57600080fd5b50620002b662000970565b005b348015620002c557600080fd5b50620002d062000a17565b604051620002df91906200133e565b60405180910390f35b348015620002f557600080fd5b506200030062000a21565b6040516200030f91906200137f565b60405180910390f35b3480156200032557600080fd5b506200033062000a2b565b005b3480156200033f57600080fd5b506200034a62000ad2565b604051620003599190620012ae565b60405180910390f35b3480156200036f57600080fd5b506200037a62000b62565b6040516200038991906200133e565b60405180910390f35b3480156200039f57600080fd5b50620003aa62000b6c565b005b348015620003b957600080fd5b50620003c462000c13565b005b348015620003d357600080fd5b50620003de62000c27565b604051620003ed91906200133e565b60405180910390f35b3480156200040357600080fd5b506200040e62000c31565b6040516200041d9190620012f6565b60405180910390f35b3480156200043357600080fd5b506200043e62000cc1565b6040516200044d91906200133e565b60405180910390f35b3480156200046357600080fd5b506200046e62000ccb565b6040516200047d91906200133e565b60405180910390f35b3480156200049357600080fd5b506200049e62000cd5565b604051620004ad919062001266565b60405180910390f35b600081620004c362000d65565b620004cf91906200135b565b604051809103906000f080158015620004ec573d6000803e3d6000fd5b509050600c8190806001815401808255809150509060018203906000526020600020016000909192909190916101000a81548173ffffffffffffffffffffffffffffffffffffffff021916908373ffffffffffffffffffffffffffffffffffffffff16021790555050600b600081548092919060010191905055505050565b60606004805480602002602001604051908101604052809291908181526020018280548015620005f157602002820191906000526020600020905b8160009054906101000a900473ffffffffffffffffffffffffffffffffffffffff1673ffffffffffffffffffffffffffffffffffffffff1681526020019060010190808311620005a6575b5050505050905090565b606060088054806020026020016040519081016040528092919081815260200182805480156200068157602002820191906000526020600020905b8160009054906101000a900473ffffffffffffffffffffffffffffffffffffffff1673ffffffffffffffffffffffffffffffffffffffff168152602001906001019080831162000636575b5050505050905090565b60606002805480602002602001604051908101604052809291908181526020016000905b8282101562000771578382906000526020600020018054600181600116156101000203166002900480601f0160208091040260200160405190810160405280929190818152602001828054600181600116156101000203166002900480156200075c5780601f1062000730576101008083540402835291602001916200075c565b820191906000526020600020905b8154815290600101906020018083116200073e57829003601f168201915b505050505081526020019060010190620006af565b50505050905090565b6060600a8054806020026020016040519081016040528092919081815260200182805480156200080057602002820191906000526020600020905b8160009054906101000a900473ffffffffffffffffffffffffffffffffffffffff1673ffffffffffffffffffffffffffffffffffffffff1681526020019060010190808311620007b5575b5050505050905090565b6000600d54905090565b6000816200082162000d76565b6200082d91906200135b565b604051809103906000f0801580156200084a573d6000803e3d6000fd5b509050600e8190806001815401808255809150509060018203906000526020600020016000909192909190916101000a81548173ffffffffffffffffffffffffffffffffffffffff021916908373ffffffffffffffffffffffffffffffffffffffff16021790555050600d600081548092919060010191905055505050565b6000620008d562000d87565b604051809103906000f080158015620008f2573d6000803e3d6000fd5b50905060068190806001815401808255809150509060018203906000526020600020016000909192909190916101000a81548173ffffffffffffffffffffffffffffffffffffffff021916908373ffffffffffffffffffffffffffffffffffffffff1602179055505060056000815480929190600101919050555050565b60006200097c62000d97565b604051809103906000f08015801562000999573d6000803e3d6000fd5b509050600a8190806001815401808255809150509060018203906000526020600020016000909192909190916101000a81548173ffffffffffffffffffffffffffffffffffffffff021916908373ffffffffffffffffffffffffffffffffffffffff1602179055505060096000815480929190600101919050555050565b6000600554905090565b6000600154905090565b600062000a3762000da7565b604051809103906000f08015801562000a54573d6000803e3d6000fd5b50905060048190806001815401808255809150509060018203906000526020600020016000909192909190916101000a81548173ffffffffffffffffffffffffffffffffffffffff021916908373ffffffffffffffffffffffffffffffffffffffff1602179055505060036000815480929190600101919050555050565b6060600c80548060200260200160405190810160405280929190818152602001828054801562000b5857602002820191906000526020600020905b8160009054906101000a900473ffffffffffffffffffffffffffffffffffffffff1673ffffffffffffffffffffffffffffffffffffffff168152602001906001019080831162000b0d575b5050505050905090565b6000600954905090565b600062000b7862000db8565b604051809103906000f08015801562000b95573d6000803e3d6000fd5b50905060088190806001815401808255809150509060018203906000526020600020016000909192909190916101000a81548173ffffffffffffffffffffffffffffffffffffffff021916908373ffffffffffffffffffffffffffffffffffffffff1602179055505060076000815480929190600101919050555050565b600160008154809291906001019190505550565b6000600354905090565b6060600e80548060200260200160405190810160405280929190818152602001828054801562000cb757602002820191906000526020600020905b8160009054906101000a900473ffffffffffffffffffffffffffffffffffffffff1673ffffffffffffffffffffffffffffffffffffffff168152602001906001019080831162000c6c575b5050505050905090565b6000600b54905090565b6000600754905090565b6060600680548060200260200160405190810160405280929190818152602001828054801562000d5b57602002820191906000526020600020905b8160009054906101000a900473ffffffffffffffffffffffffffffffffffffffff1673ffffffffffffffffffffffffffffffffffffffff168152602001906001019080831162000d10575b5050505050905090565b604051611028806200168b83390190565b6040516107fd80620026b383390190565b60405160db8062002eb083390190565b60405160db8062002f8b83390190565b6040516104f9806200306683390190565b60405161082d806200355f83390190565b600082601f830112151562000ddd57600080fd5b813562000df462000dee82620013ca565b6200139c565b9150808252602083016020830185838301111562000e1157600080fd5b62000e1e83828462001634565b50505092915050565b60006020828403121562000e3a57600080fd5b600082013567ffffffffffffffff81111562000e5557600080fd5b62000e638482850162000dc9565b91505092915050565b600062000e798262001452565b80845260208401935062000e8d83620013f7565b60005b8281101562000ec55762000ea686835162001142565b62000eb182620014b5565b915060208601955060018101905062000e90565b50849250505092915050565b600062000ede826200145d565b80845260208401935062000ef28362001404565b60005b8281101562000f2a5762000f0b86835162001153565b62000f1682620014c2565b915060208601955060018101905062000ef5565b50849250505092915050565b600062000f438262001468565b80845260208401935062000f578362001411565b60005b8281101562000f8f5762000f7086835162001164565b62000f7b82620014cf565b915060208601955060018101905062000f5a565b50849250505092915050565b600062000fa88262001473565b80845260208401935062000fbc836200141e565b60005b8281101562000ff45762000fd586835162001175565b62000fe082620014dc565b915060208601955060018101905062000fbf565b50849250505092915050565b60006200100d826200147e565b80845260208401935062001021836200142b565b60005b8281101562001059576200103a86835162001186565b6200104582620014e9565b915060208601955060018101905062001024565b50849250505092915050565b6000620010728262001489565b808452602084019350620010868362001438565b60005b82811015620010be576200109f86835162001197565b620010aa82620014f6565b915060208601955060018101905062001089565b50849250505092915050565b6000620010d78262001494565b80845260208401935083602082028501620010f28562001445565b60005b848110156200113157838303885262001110838351620011f5565b92506200111d8262001503565b9150602088019750600181019050620010f5565b508196508694505050505092915050565b6200114d8162001544565b82525050565b6200115e816200156c565b82525050565b6200116f8162001594565b82525050565b6200118081620015bc565b82525050565b6200119181620015e4565b82525050565b620011a2816200160c565b82525050565b620011b38162001510565b82525050565b6000620011c682620014aa565b808452620011dc81602086016020860162001643565b620011e78162001679565b602085010191505092915050565b600062001202826200149f565b8084526200121881602086016020860162001643565b620012238162001679565b602085010191505092915050565b6200123c816200153a565b82525050565b600060208201905081810360008301526200125e818462000e6c565b905092915050565b6000602082019050818103600083015262001282818462000ed1565b905092915050565b60006020820190508181036000830152620012a6818462000f36565b905092915050565b60006020820190508181036000830152620012ca818462000f9b565b905092915050565b60006020820190508181036000830152620012ee818462001000565b905092915050565b6000602082019050818103600083015262001312818462001065565b905092915050565b60006020820190508181036000830152620013368184620010ca565b905092915050565b6000602082019050620013556000830184620011a8565b92915050565b60006020820190508181036000830152620013778184620011b9565b905092915050565b600060208201905062001396600083018462001231565b92915050565b6000604051905081810181811067ffffffffffffffff82111715620013c057600080fd5b8060405250919050565b600067ffffffffffffffff821115620013e257600080fd5b601f19601f8301169050602081019050919050565b6000602082019050919050565b6000602082019050919050565b6000602082019050919050565b6000602082019050919050565b6000602082019050919050565b6000602082019050919050565b6000602082019050919050565b600081519050919050565b600081519050919050565b600081519050919050565b600081519050919050565b600081519050919050565b600081519050919050565b600081519050919050565b600081519050919050565b600081519050919050565b6000602082019050919050565b6000602082019050919050565b6000602082019050919050565b6000602082019050919050565b6000602082019050919050565b6000602082019050919050565b6000602082019050919050565b6000819050919050565b600073ffffffffffffffffffffffffffffffffffffffff82169050919050565b6000819050919050565b6000620015518262001558565b9050919050565b600062001565826200151a565b9050919050565b6000620015798262001580565b9050919050565b60006200158d826200151a565b9050919050565b6000620015a182620015a8565b9050919050565b6000620015b5826200151a565b9050919050565b6000620015c982620015d0565b9050919050565b6000620015dd826200151a565b9050919050565b6000620015f182620015f8565b9050919050565b600062001605826200151a565b9050919050565b6000620016198262001620565b9050919050565b60006200162d826200151a565b9050919050565b82818337600083830152505050565b60005b838110156200166357808201518184015260208101905062001646565b8381111562001673576000848401525b50505050565b6000601f19601f830116905091905056fe6080604052600060015560e0604051908101604052806040805190810160405280600e81526020017f4964656174696f6e2053746167650000000000000000000000000000000000008152508152602001606060405190810160405280602881526020017f52657175657374656420666f7220526177204d6174657269616c732c20496e2081526020017f50726f67726573730000000000000000000000000000000000000000000000008152508152602001606060405190810160405280602481526020017f416c6c20526177204d6174657269616c732052657175657374732066756c666981526020017f6c6c6564000000000000000000000000000000000000000000000000000000008152508152602001606060405190810160405280602681526020017f416c6c20526177204d6174657269616c7320617265207769746820444973747281526020017f696275746f7200000000000000000000000000000000000000000000000000008152508152602001606060405190810160405280602c81526020017f416c6c20526177204d6174657269616c732070726f63657373696e6720746f2081526020017f6d616b652070726f64756374000000000000000000000000000000000000000081525081526020016040805190810160405280601081526020017f50726f647563742069732052656164790000000000000000000000000000000081525081526020016040805190810160405280601d81526020017f50726f6475637420697320626f7567687420627920637573746f6d657200000081525081525060029060076200025e929190620002ff565b5060006004556040516200102838038062001028833981018060405260208110156200028957600080fd5b810190808051640100000000811115620002a257600080fd5b82810190506020810184811115620002b957600080fd5b8151856001820283011164010000000082111715620002d757600080fd5b50509291905050508060009080519060200190620002f792919062000366565b505062000519565b82805482825590600052602060002090810192821562000353579160200282015b828111156200035257825182908051906020019062000341929190620003ed565b509160200191906001019062000320565b5b50905062000362919062000474565b5090565b828054600181600116156101000203166002900490600052602060002090601f016020900481019282601f10620003a957805160ff1916838001178555620003da565b82800160010185558215620003da579182015b82811115620003d9578251825591602001919060010190620003bc565b5b509050620003e99190620004a5565b5090565b828054600181600116156101000203166002900490600052602060002090601f016020900481019282601f106200043057805160ff191683800117855562000461565b8280016001018555821562000461579182015b828111156200046057825182559160200191906001019062000443565b5b509050620004709190620004a5565b5090565b620004a291905b808211156200049e5760008181620004949190620004cd565b506001016200047b565b5090565b90565b620004ca91905b80821115620004c6576000816000905550600101620004ac565b5090565b90565b50805460018160011615610100020316600290046000825580601f10620004f5575062000516565b601f016020900490600052602060002090810190620005159190620004a5565b5b50565b610aff80620005296000396000f3fe6080604052600436106100a4576000357c0100000000000000000000000000000000000000000000000000000000900463ffffffff168063126f5e7a146100a65780631747facc1461016e5780632986c0e5146101fe57806338cc48311461022957806340078519146102805780634ec05fae14610348578063843b2e7914610377578063845ddcb21461043f578063bed4f43f146104f3578063f80d1ff01461050a575b005b3480156100b257600080fd5b5061016c600480360360208110156100c957600080fd5b81019080803590602001906401000000008111156100e657600080fd5b8201836020820111156100f857600080fd5b8035906020019184600183028401116401000000008311171561011a57600080fd5b91908080601f016020809104026020016040519081016040528093929190818152602001838380828437600081840152601f19601f82011690508083019250505050505050919291929050505061059a565b005b34801561017a57600080fd5b50610183610621565b6040518080602001828103825283818151815260200191508051906020019080838360005b838110156101c35780820151818401526020810190506101a8565b50505050905090810190601f1680156101f05780820380516001836020036101000a031916815260200191505b509250505060405180910390f35b34801561020a57600080fd5b506102136106dc565b6040518082815260200191505060405180910390f35b34801561023557600080fd5b5061023e6106e2565b604051808273ffffffffffffffffffffffffffffffffffffffff1673ffffffffffffffffffffffffffffffffffffffff16815260200191505060405180910390f35b34801561028c57600080fd5b50610346600480360360208110156102a357600080fd5b81019080803590602001906401000000008111156102c057600080fd5b8201836020820111156102d257600080fd5b803590602001918460018302840111640100000000831117156102f457600080fd5b91908080601f016020809104026020016040519081016040528093929190818152602001838380828437600081840152601f19601f8201169050808301925050505050505091929192905050506106ea565b005b34801561035457600080fd5b5061035d610771565b604051808215151515815260200191505060405180910390f35b34801561038357600080fd5b5061043d6004803603602081101561039a57600080fd5b81019080803590602001906401000000008111156103b757600080fd5b8201836020820111156103c957600080fd5b803590602001918460018302840111640100000000831117156103eb57600080fd5b91908080601f016020809104026020016040519081016040528093929190818152602001838380828437600081840152601f19601f820116905080830192505050505050509192919290505050610845565b005b34801561044b57600080fd5b506104786004803603602081101561046257600080fd5b8101908080359060200190929190505050610962565b6040518080602001828103825283818151815260200191508051906020019080838360005b838110156104b857808201518184015260208101905061049d565b50505050905090810190601f1680156104e55780820380516001836020036101000a031916815260200191505b509250505060405180910390f35b3480156104ff57600080fd5b50610508610a1d565b005b34801561051657600080fd5b5061051f610a31565b6040518080602001828103825283818151815260200191508051906020019080838360005b8381101561055f578082015181840152602081019050610544565b50505050905090810190601f16801561058c5780820380516001836020036101000a031916815260200191505b509250505060405180910390f35b60016005826040518082805190602001908083835b6020831015156105d457805182526020820191506020810190506020830392506105af565b6001836020036101000a038019825116818451168082178552505050505050905001915050908152602001604051809103902060006101000a81548160ff02191690831515021790555050565b6060600260015481548110151561063457fe5b906000526020600020018054600181600116156101000203166002900480601f0160208091040260200160405190810160405280929190818152602001828054600181600116156101000203166002900480156106d25780601f106106a7576101008083540402835291602001916106d2565b820191906000526020600020905b8154815290600101906020018083116106b557829003601f168201915b5050505050905090565b60015481565b600030905090565b60016006826040518082805190602001908083835b60208310151561072457805182526020820191506020810190506020830392506106ff565b6001836020036101000a038019825116818451168082178552505050505050905001915050908152602001604051809103902060006101000a81548160ff02191690831515021790555050565b6000806001905060008090505b60045481101561083d5760001515600560038381548110151561079d57fe5b9060005260206000200160405180828054600181600116156101000203166002900480156108025780601f106107e0576101008083540402835291820191610802565b820191906000526020600020905b8154815290600101906020018083116107ee575b5050915050908152602001604051809103902060009054906101000a900460ff161515141561083057600091505b808060010191505061077e565b508091505090565b60006005826040518082805190602001908083835b60208310151561087f578051825260208201915060208101905060208303925061085a565b6001836020036101000a038019825116818451168082178552505050505050905001915050908152602001604051809103902060006101000a81548160ff02191690831515021790555060006006826040518082805190602001908083835b60208310151561090357805182526020820191506020810190506020830392506108de565b6001836020036101000a038019825116818451168082178552505050505050905001915050908152602001604051809103902060006101000a81548160ff02191690831515021790555060046000815480929190600101919050555050565b60028181548110151561097157fe5b906000526020600020016000915090508054600181600116156101000203166002900480601f016020809104026020016040519081016040528092919081815260200182805460018160011615610100020316600290048015610a155780601f106109ea57610100808354040283529160200191610a15565b820191906000526020600020905b8154815290600101906020018083116109f857829003601f168201915b505050505081565b600160008154809291906001019190505550565b606060008054600181600116156101000203166002900480601f016020809104026020016040519081016040528092919081815260200182805460018160011615610100020316600290048015610ac95780601f10610a9e57610100808354040283529160200191610ac9565b820191906000526020600020905b815481529060010190602001808311610aac57829003601f168201915b505050505090509056fea165627a7a72305820d103fba0d657abef339d5a7658cb02cba10b4f8a369b30a90a53588aa001b5e40029608060405260006003556040516107fd3803806107fd8339810180604052602081101561002b57600080fd5b81019080805164010000000081111561004357600080fd5b8281019050602081018481111561005957600080fd5b815185600182028301116401000000008211171561007657600080fd5b5050929190505050806000908051906020019061009492919061009b565b5050610140565b828054600181600116156101000203166002900490600052602060002090601f016020900481019282601f106100dc57805160ff191683800117855561010a565b8280016001018555821561010a579182015b828111156101095782518255916020019190600101906100ee565b5b509050610117919061011b565b5090565b61013d91905b80821115610139576000816000905550600101610121565b5090565b90565b6106ae8061014f6000396000f3fe60806040526004361061006d576000357c0100000000000000000000000000000000000000000000000000000000900463ffffffff168063126f5e7a1461006f57806338cc483114610137578063400785191461018e5780635884965f14610256578063843b2e79146102e6575b005b34801561007b57600080fd5b506101356004803603602081101561009257600080fd5b81019080803590602001906401000000008111156100af57600080fd5b8201836020820111156100c157600080fd5b803590602001918460018302840111640100000000831117156100e357600080fd5b91908080601f016020809104026020016040519081016040528093929190818152602001838380828437600081840152601f19601f8201169050808301925050505050505091929192905050506103ae565b005b34801561014357600080fd5b5061014c610435565b604051808273ffffffffffffffffffffffffffffffffffffffff1673ffffffffffffffffffffffffffffffffffffffff16815260200191505060405180910390f35b34801561019a57600080fd5b50610254600480360360208110156101b157600080fd5b81019080803590602001906401000000008111156101ce57600080fd5b8201836020820111156101e057600080fd5b8035906020019184600183028401116401000000008311171561020257600080fd5b91908080601f016020809104026020016040519081016040528093929190818152602001838380828437600081840152601f19601f82011690508083019250505050505050919291929050505061043d565b005b34801561026257600080fd5b5061026b6104c3565b6040518080602001828103825283818151815260200191508051906020019080838360005b838110156102ab578082015181840152602081019050610290565b50505050905090810190601f1680156102d85780820380516001836020036101000a031916815260200191505b509250505060405180910390f35b3480156102f257600080fd5b506103ac6004803603602081101561030957600080fd5b810190808035906020019064010000000081111561032657600080fd5b82018360208201111561033857600080fd5b8035906020019184600183028401116401000000008311171561035a57600080fd5b91908080601f016020809104026020016040519081016040528093929190818152602001838380828437600081840152601f19601f820116905080830192505050505050509192919290505050610565565b005b60016002826040518082805190602001908083835b6020831015156103e857805182526020820191506020810190506020830392506103c3565b6001836020036101000a038019825116818451168082178552505050505050905001915050908152602001604051809103902060006101000a81548160ff02191690831515021790555050565b600030905090565b600180826040518082805190602001908083835b6020831015156104765780518252602082019150602081019050602083039250610451565b6001836020036101000a038019825116818451168082178552505050505050905001915050908152602001604051809103902060006101000a81548160ff02191690831515021790555050565b606060008054600181600116156101000203166002900480601f01602080910402602001604051908101604052809291908181526020018280546001816001161561010002031660029004801561055b5780601f106105305761010080835404028352916020019161055b565b820191906000526020600020905b81548152906001019060200180831161053e57829003601f168201915b5050505050905090565b60006001826040518082805190602001908083835b60208310151561059f578051825260208201915060208101905060208303925061057a565b6001836020036101000a038019825116818451168082178552505050505050905001915050908152602001604051809103902060006101000a81548160ff02191690831515021790555060006002826040518082805190602001908083835b60208310151561062357805182526020820191506020810190506020830392506105fe565b6001836020036101000a038019825116818451168082178552505050505050905001915050908152602001604051809103902060006101000a81548160ff0219169083151502179055506003600081548092919060010191905055505056fea165627a7a723058203bc9effad099865746348639af25917ad48344f48edaea4b56b74f769acba3290029608060405260c9806100126000396000f3fe608060405260043610603f576000357c0100000000000000000000000000000000000000000000000000000000900463ffffffff16806338cc4831146041575b005b348015604c57600080fd5b5060536095565b604051808273ffffffffffffffffffffffffffffffffffffffff1673ffffffffffffffffffffffffffffffffffffffff16815260200191505060405180910390f35b60003090509056fea165627a7a72305820149bc55d55c19403df4fc68194301ce7bc6800a77304694e3f564012753a61440029608060405260c9806100126000396000f3fe608060405260043610603f576000357c0100000000000000000000000000000000000000000000000000000000900463ffffffff16806338cc4831146041575b005b348015604c57600080fd5b5060536095565b604051808273ffffffffffffffffffffffffffffffffffffffff1673ffffffffffffffffffffffffffffffffffffffff16815260200191505060405180910390f35b60003090509056fea165627a7a72305820a487d0a7e19282d2c3cd13573fcda4bdfdf358ae549f6f2efcc4c90755f0c9760029608060405260006001556104e1806100186000396000f3fe608060405260043610610062576000357c0100000000000000000000000000000000000000000000000000000000900463ffffffff16806338cc483114610064578063a3a017e11461008f578063aeb8ce9b146100b8578063bf043c9f146100f5575b005b34801561007057600080fd5b5061007961011e565b60405161008691906103c3565b60405180910390f35b34801561009b57600080fd5b506100b660048036036100b19190810190610351565b610126565b005b3480156100c457600080fd5b506100df60048036036100da9190810190610310565b6101a3565b6040516100ec91906103de565b60405180910390f35b34801561010157600080fd5b5061011c60048036036101179190810190610351565b610217565b005b600030905090565b806000836040518082805190602001908083835b60208310151561015f578051825260208201915060208101905060208303925061013a565b6001836020036101000a0380198251168184511680821785525050505050509050019150509081526020016040518091039020600082825403925050819055505050565b600080826040518082805190602001908083835b6020831015156101dc57805182526020820191506020810190506020830392506101b7565b6001836020036101000a0380198251168184511680821785525050505050509050019150509081526020016040518091039020549050919050565b806000836040518082805190602001908083835b602083101515610250578051825260208201915060208101905060208303925061022b565b6001836020036101000a0380198251168184511680821785525050505050509050019150509081526020016040518091039020600082825401925050819055506001600081548092919060010191905055505050565b60006102b2823561048e565b905092915050565b600082601f83011215156102cd57600080fd5b81356102e06102db82610426565b6103f9565b915080825260208301602083018583830111156102fc57600080fd5b610307838284610498565b50505092915050565b60006020828403121561032257600080fd5b600082013567ffffffffffffffff81111561033c57600080fd5b610348848285016102ba565b91505092915050565b6000806040838503121561036457600080fd5b600083013567ffffffffffffffff81111561037e57600080fd5b61038a858286016102ba565b925050602061039b858286016102a6565b9150509250929050565b6103ae81610452565b82525050565b6103bd81610464565b82525050565b60006020820190506103d860008301846103a5565b92915050565b60006020820190506103f360008301846103b4565b92915050565b6000604051905081810181811067ffffffffffffffff8211171561041c57600080fd5b8060405250919050565b600067ffffffffffffffff82111561043d57600080fd5b601f19601f8301169050602081019050919050565b600061045d8261046e565b9050919050565b6000819050919050565b600073ffffffffffffffffffffffffffffffffffffffff82169050919050565b6000819050919050565b8281833760008383015250505056fea265627a7a72305820a3fc4f47da01903716b0633977196046665d826dae1bc01ba6a7a7b2ad9f97ac6c6578706572696d656e74616cf50037608060405261081a806100136000396000f3fe608060405260043610610057576000357c0100000000000000000000000000000000000000000000000000000000900463ffffffff16806338cc48311461005957806368111cce14610084578063769bdf1b146100c1575b005b34801561006557600080fd5b5061006e6100ea565b60405161007b9190610681565b60405180910390f35b34801561009057600080fd5b506100ab60048036036100a6919081019061049b565b6100f2565b6040516100b8919061069c565b60405180910390f35b3480156100cd57600080fd5b506100e860048036036100e391908101906104dc565b610273565b005b600030905090565b60606000826040518082805190602001908083835b60208310151561012c5780518252602082019150602081019050602083039250610107565b6001836020036101000a0380198251168184511680821785525050505050509050019150509081526020016040518091039020805480602002602001604051908101604052809291908181526020016000905b82821015610268578382906000526020600020906003020160606040519081016040529081600082018054600181600116156101000203166002900480601f01602080910402602001604051908101604052809291908181526020018280546001816001161561010002031660029004801561023c5780601f106102115761010080835404028352916020019161023c565b820191906000526020600020905b81548152906001019060200180831161021f57829003601f168201915b50505050508152602001600182015481526020016002820154815250508152602001906001019061017f565b505050509050919050565b61027b61036a565b83816000018190525082816020018181525050818160400181815250506000856040518082805190602001908083835b6020831015156102d057805182526020820191506020810190506020830392506102ab565b6001836020036101000a03801982511681845116808217855250505050505090500191505090815260200160405180910390208190806001815401808255809150509060018203906000526020600020906003020160009091929091909150600082015181600001908051906020019061034b92919061038c565b5060208201518160010155604082015181600201555050505050505050565b6060604051908101604052806060815260200160008152602001600081525090565b828054600181600116156101000203166002900490600052602060002090601f016020900481019282601f106103cd57805160ff19168380011785556103fb565b828001600101855582156103fb579182015b828111156103fa5782518255916020019190600101906103df565b5b509050610408919061040c565b5090565b61042e91905b8082111561042a576000816000905550600101610412565b5090565b90565b600061043d8235610783565b905092915050565b600082601f830112151561045857600080fd5b813561046b610466826106eb565b6106be565b9150808252602083016020830185838301111561048757600080fd5b61049283828461078d565b50505092915050565b6000602082840312156104ad57600080fd5b600082013567ffffffffffffffff8111156104c757600080fd5b6104d384828501610445565b91505092915050565b600080600080608085870312156104f257600080fd5b600085013567ffffffffffffffff81111561050c57600080fd5b61051887828801610445565b945050602085013567ffffffffffffffff81111561053557600080fd5b61054187828801610445565b935050604061055287828801610431565b925050606061056387828801610431565b91505092959194509250565b61057881610747565b82525050565b600061058982610724565b808452602084019350836020820285016105a285610717565b60005b848110156105db5783830388526105bd838351610631565b92506105c88261073a565b91506020880197506001810190506105a5565b508196508694505050505092915050565b6105f581610759565b82525050565b60006106068261072f565b80845261061a81602086016020860161079c565b610623816107cf565b602085010191505092915050565b6000606083016000830151848203600086015261064e82826105fb565b915050602083015161066360208601826105ec565b50604083015161067660408601826105ec565b508091505092915050565b6000602082019050610696600083018461056f565b92915050565b600060208201905081810360008301526106b6818461057e565b905092915050565b6000604051905081810181811067ffffffffffffffff821117156106e157600080fd5b8060405250919050565b600067ffffffffffffffff82111561070257600080fd5b601f19601f8301169050602081019050919050565b6000602082019050919050565b600081519050919050565b600081519050919050565b6000602082019050919050565b600061075282610763565b9050919050565b6000819050919050565b600073ffffffffffffffffffffffffffffffffffffffff82169050919050565b6000819050919050565b82818337600083830152505050565b60005b838110156107ba57808201518184015260208101905061079f565b838111156107c9576000848401525b50505050565b6000601f19601f830116905091905056fea265627a7a72305820b8f758eea8da4fbe543f451bf43b782bb8609cf56bf8f148fd19068092cdfdc16c6578706572696d656e74616cf50037a265627a7a72305820327e5ef6b8c08a1e19398009ce91786090266a371c593ab1337c21d8a472cb8d6c6578706572696d656e74616cf50037",
  "source": "// SPDX-License-Identifier: MIT\r\npragma solidity 0.5.0;\r\npragma experimental ABIEncoderV2;\r\n\r\nimport \"./Manufacturer.sol\";\r\nimport \"./Distributor.sol\";\r\nimport \"./Retailer.sol\";\r\nimport \"./Customer.sol\";\r\nimport \"./Product.sol\";\r\nimport \"./Transport.sol\";\r\n\r\ncontract Contracts_Factory {\r\n\r\n    // Common Section\r\n    uint256 SIZE = 10;\r\n    uint index = 0;\r\n    string[] accounts = [\r\n        \"0x535ec26742feD9Fe9Bd98D851F60B17e621ca68e\",\r\n        \"0x71219f7633948D72B6ED5c50Abdef47714310aDb\",\r\n        \"0x008AE1ca67F69C743D8Ff4e051D6b5e7aC7EE90B\",\r\n        \"0xc68483F14a9e608f6c4f28b1354621d673E532b3\",\r\n        \"0xd23752B4Cb567D914ea99Cf7E9138e1a6652f4AA\",\r\n        \"0xFAC89d080476c67853e2D20cDf47BD9C36177616\",\r\n        \"0xC085446132434a1584793015F3BcC569360f6DDf\",\r\n        \"0xc0B03B26E74a7B6048cE4677073E2Aa3E64FD375\",\r\n        \"0x149BA351e0Fb4368E3308841433Bb31CfA071758\",\r\n        \"0x2cfd4FC4Ae8BA69a8E3CA3e514246F2B2f69d977\"\r\n    ];\r\n\r\n    function getEthAccount() public view returns (string[] memory) {\r\n        return accounts;\r\n    }\r\n    function getIndex() public view returns(uint){\r\n        return index;\r\n    }\r\n    function incrementIndex() public {\r\n       index++;\r\n    }\r\n\r\n    // Manufacturer Section\r\n    int256 _manufacturer_SIZE = 0;\r\n    Manufacturer[] _manufacturers;\r\n\r\n    function createManufacturer() public {\r\n        Manufacturer newManufacturer = new Manufacturer();\r\n        _manufacturers.push(newManufacturer);\r\n        _manufacturer_SIZE++;\r\n    }\r\n\r\n    function allManufacturers() public view returns (Manufacturer[] memory) {\r\n        return _manufacturers;\r\n    }\r\n\r\n    function get_manufacturer_SIZE() public view returns (int256) {\r\n        return _manufacturer_SIZE;\r\n    }\r\n\r\n\r\n    // Distributor Section\r\n    int256 _distributor_SIZE = 0;\r\n    Distributor[] _distributors;\r\n\r\n    function createDistributor() public {\r\n        Distributor newdistributor = new Distributor();\r\n        _distributors.push(newdistributor);\r\n        _distributor_SIZE++;\r\n    }\r\n\r\n    function allDistributors() public view returns (Distributor[] memory) {\r\n        return _distributors;\r\n    }\r\n\r\n    function get_distributor_SIZE() public view returns (int256) {\r\n        return _distributor_SIZE;\r\n    }\r\n\r\n\r\n    // Retailer Section\r\n    int256 _retailer_SIZE = 0;\r\n    Retailer[] _retailers;\r\n\r\n    function createRetailer() public {\r\n        Retailer newRetailer = new Retailer();\r\n        _retailers.push(newRetailer);\r\n        _retailer_SIZE++;\r\n    }\r\n\r\n    function allRetailers() public view returns (Retailer[] memory) {\r\n        return _retailers;\r\n    }\r\n\r\n    function get_retailer_SIZE() public view returns (int256) {\r\n        return _retailer_SIZE;\r\n    }\r\n\r\n    // Customer Section\r\n    int256 _customer_SIZE = 0;\r\n    Customer[] _customers;\r\n\r\n    function createCustomer() public {\r\n        Customer newManufacturer = new Customer();\r\n        _customers.push(newManufacturer);\r\n        _customer_SIZE++;\r\n    }\r\n\r\n    function allCustomers() public view returns (Customer[] memory) {\r\n        return _customers;\r\n    }\r\n\r\n    function get_customer_SIZE() public view returns (int256) {\r\n        return _customer_SIZE;\r\n    }\r\n\r\n\r\n    // Product Section\r\n    int256 _product_SIZE = 0;\r\n    Product[] _products;\r\n\r\n    function createProduct(string memory _owner) public {\r\n        Product newProduct = new Product(_owner);\r\n        _products.push(newProduct);\r\n        _product_SIZE++;\r\n    }\r\n\r\n    function allProducts() public view returns(Product[] memory){\r\n        return _products;\r\n    }\r\n\r\n    function get_product_SIZE() public view returns (int256){\r\n        return _product_SIZE;\r\n    }\r\n\r\n    // Transport Section\r\n    int256 _transport_SIZE = 0;\r\n    Transport[] _transports;\r\n\r\n    function createTransport(string memory _owner) public {\r\n        Transport newTransport = new Transport(_owner);\r\n        _transports.push( newTransport);\r\n        _transport_SIZE++;\r\n    }\r\n\r\n    function allTransports() public view returns(Transport[] memory){\r\n        return _transports;\r\n    }\r\n\r\n    function get_transport_SIZE() public view returns (int256){\r\n        return _transport_SIZE;\r\n    }\r\n\r\n}\r\n",
  "sourcePath": "D:/Mini-Project-Sem-4/Supply-Chain-and-Logistics-Blockchain/backend/blockchain/contracts/Contracts_Factory.sol",
  "compiler": {
    "name": "solc",
    "version": "0.5.0+commit.1d4f565a.Emscripten.clang"
  },
  "schemaVersion": "3.0.1",
  "updatedAt": "2022-04-26T11:49:31.823Z",
  "devdoc": {
    "methods": {}
  },
  "userdoc": {
    "methods": {}
  }
}