{
  "contractName": "Manufacturer",
  "abi": [
    {
      "inputs": [],
      "payable": true,
      "stateMutability": "payable",
      "type": "constructor",
      "signature": "constructor"
    },
    {
      "payable": true,
      "stateMutability": "payable",
      "type": "fallback"
    },
    {
      "constant": true,
      "inputs": [],
      "name": "getAddress",
      "outputs": [
        {
          "name": "",
          "type": "address"
        }
      ],
      "payable": false,
      "stateMutability": "view",
      "type": "function",
      "signature": "0x38cc4831"
    },
    {
      "constant": false,
      "inputs": [
        {
          "name": "_material",
          "type": "string"
        },
        {
          "name": "_capacity",
          "type": "int256"
        }
      ],
      "name": "produce",
      "outputs": [],
      "payable": false,
      "stateMutability": "nonpayable",
      "type": "function",
      "signature": "0xbf043c9f"
    },
    {
      "constant": false,
      "inputs": [
        {
          "name": "_material",
          "type": "string"
        },
        {
          "name": "_capacity",
          "type": "int256"
        }
      ],
      "name": "sell",
      "outputs": [],
      "payable": false,
      "stateMutability": "nonpayable",
      "type": "function",
      "signature": "0xa3a017e1"
    },
    {
      "constant": true,
      "inputs": [
        {
          "name": "_material",
          "type": "string"
        }
      ],
      "name": "available",
      "outputs": [
        {
          "name": "",
          "type": "int256"
        }
      ],
      "payable": false,
      "stateMutability": "view",
      "type": "function",
      "signature": "0xaeb8ce9b"
    }
  ],
  "bytecode": "0x608060405260006001556104e1806100186000396000f3fe608060405260043610610062576000357c0100000000000000000000000000000000000000000000000000000000900463ffffffff16806338cc483114610064578063a3a017e11461008f578063aeb8ce9b146100b8578063bf043c9f146100f5575b005b34801561007057600080fd5b5061007961011e565b60405161008691906103c3565b60405180910390f35b34801561009b57600080fd5b506100b660048036036100b19190810190610351565b610126565b005b3480156100c457600080fd5b506100df60048036036100da9190810190610310565b6101a3565b6040516100ec91906103de565b60405180910390f35b34801561010157600080fd5b5061011c60048036036101179190810190610351565b610217565b005b600030905090565b806000836040518082805190602001908083835b60208310151561015f578051825260208201915060208101905060208303925061013a565b6001836020036101000a0380198251168184511680821785525050505050509050019150509081526020016040518091039020600082825403925050819055505050565b600080826040518082805190602001908083835b6020831015156101dc57805182526020820191506020810190506020830392506101b7565b6001836020036101000a0380198251168184511680821785525050505050509050019150509081526020016040518091039020549050919050565b806000836040518082805190602001908083835b602083101515610250578051825260208201915060208101905060208303925061022b565b6001836020036101000a0380198251168184511680821785525050505050509050019150509081526020016040518091039020600082825401925050819055506001600081548092919060010191905055505050565b60006102b2823561048e565b905092915050565b600082601f83011215156102cd57600080fd5b81356102e06102db82610426565b6103f9565b915080825260208301602083018583830111156102fc57600080fd5b610307838284610498565b50505092915050565b60006020828403121561032257600080fd5b600082013567ffffffffffffffff81111561033c57600080fd5b610348848285016102ba565b91505092915050565b6000806040838503121561036457600080fd5b600083013567ffffffffffffffff81111561037e57600080fd5b61038a858286016102ba565b925050602061039b858286016102a6565b9150509250929050565b6103ae81610452565b82525050565b6103bd81610464565b82525050565b60006020820190506103d860008301846103a5565b92915050565b60006020820190506103f360008301846103b4565b92915050565b6000604051905081810181811067ffffffffffffffff8211171561041c57600080fd5b8060405250919050565b600067ffffffffffffffff82111561043d57600080fd5b601f19601f8301169050602081019050919050565b600061045d8261046e565b9050919050565b6000819050919050565b600073ffffffffffffffffffffffffffffffffffffffff82169050919050565b6000819050919050565b8281833760008383015250505056fea265627a7a72305820a3fc4f47da01903716b0633977196046665d826dae1bc01ba6a7a7b2ad9f97ac6c6578706572696d656e74616cf50037",
  "source": "// SPDX-License-Identifier: MIT\r\npragma solidity 0.5.0;\r\npragma experimental ABIEncoderV2;\r\n\r\ncontract Manufacturer{\r\n\r\n    constructor() public payable{}\r\n    //ethers receive and sent section\r\n    function() external payable{}\r\n\r\n    function getAddress()  public view returns (address){\r\n        return address(this);\r\n    }\r\n\r\n    mapping(string=>int)material;\r\n    int SIZE = 0;\r\n\r\n    // General method to call : when manufacturer produces raw material\r\n    function produce(string memory _material, int _capacity) public{\r\n        material[_material] +=   _capacity;\r\n        SIZE++;\r\n    }\r\n\r\n    // General method to call : to consume material\r\n    function sell(string memory _material, int _capacity) public {\r\n        material[_material] -= _capacity;\r\n    }\r\n\r\n    // General method to call : to check available stock\r\n    function available(string memory _material) public view returns (int){\r\n        return material[_material];\r\n    }\r\n\r\n      \r\n} \r\n\r\n",
  "sourcePath": "D:\\Mini-Project-Sem-4\\Supply-Chain-and-Logistics-Blockchain\\backend\\blockchain\\contracts\\Manufacturer.sol",
  "compiler": {
    "name": "solc",
    "version": "0.5.0+commit.1d4f565a.Emscripten.clang"
  },
  "schemaVersion": "3.0.1",
  "updatedAt": "2022-04-26T11:49:16.434Z",
  "devdoc": {
    "methods": {}
  },
  "userdoc": {
    "methods": {}
  }
}